:03000000020006F5
:03005F0002000399
:030003000211F1F6
:20006200AFF0AE83E582900003F0EEA3F0EFA3F0C2E8900003E0FDA3E0FEA3E0FF90000113
:20008200E0FBA3E0FC900016EDF0EEA3F0EFA3F0900019EBF0ECA3F090001B7401F0758274
:2000A2006112022BAF82D2E8900004C007120840D0078F8222E58290000BF0E0FF741F5F31
:2000C2004420FF900006E0FCA3E0FDA3E0FE900009E0FAA3E0FB900016ECF0EDA3F0EEA3C4
:2000E200F0900019EAF0EBA3F090001BE4F08F8202022B75E80275E80422AFF0AE83E58235
:2001020090000FF0EEA3F0EFA3F090000FE0FDA3E0FEA3E0FF90000CE0FBA3E0FC90001630
:20012200EDF0EEA3F0EFA3F0900019EBF0ECA3F090001BE4F07582A012022BAF8290000EB6
:20014200E0FEBE0107C007120151D0078F8222D2E890000412084090000A120840C2E8225C
:20016200E582900012F09000267413F07400A3F0E4A3F090002904F0E4A3F07582001203A9
:2001820067900013E0FF30E0012290001374014FF09000067413F07400A3F0E4A3F09000CF
:2001A2000904F0E4A3F07582001200B7900012E06008D2E8900004020840C2E82290001417
:2001C2007470F09000067414F07400A3F0E4A3F090000904F0E4A3F07582071200B7C2C16F
:2001E200229000267415F07400A3F0E4A3F090002904F0E4A3F0758200120367900015E012
:20020200FF20E00122C2E890001574FE5FF09000067415F07400A3F0E4A3F090000904F090
:20022200E4A3F07582000200B7E58290001CF0E0FF90001DF0C2E990001E7401F0E4A3F0E1
:2002420090002004F090001D75F000120287900016E0FDA3E0FEA3E0FF900019E0FBA3E0BE
:20026200FC90001BE0FA90001EEBF0ECA3F0900020EAF08D828E838FF0120287D2E99000E4
:200282001DE0F58222AFF0AE83E582900021F0EEA3F0EFA3F0900021E0FDA3E0FEA3E0FF5A
:2002A200900020E0FC90001EE0FAA3E0FB78007900C3E89AE99B505FC002C003E82DF508AA
:2002C200E93EF5098F0A850882850983850AF0121701FBF582C007C006C005C004C003C08A
:2002E20002C001C0001203A385820BD000D001D002D003D004D005D006D007D003D002EC82
:20030200600E850882850983850AF0E50B12159308B8009D09809A22E582900025F09000E6
:2003220024E0FF74024FF09000067424F07400A3F0E4A3F090000904F0E4A3F0758200125A
:2003420000B7900001120840900024E0FF20E003C2E822900025E0FF6008D2E8900004024B
:200362000840C2E822E58290002BF0E0FF53071F900026E0FCA3E0FDA3E0FE900029E0FAD7
:20038200A3E0FB900016ECF0EDA3F0EEA3F0900019EAF0EBA3F090001B7401F08F82020234
:2003A2002BE58290002CF0E0F5E7E5E630E2FBC2C085E78222AFF0AE83E582900030F0EE02
:2003C200A3F0EFA3F090002FE0FF24FA500122740A2FFF900030E0FCA3E0FDA3E0FE9000FE
:2003E2002DE0FAA3E0FB900006ECF0EDA3F0EEA3F0900009EAF0EBA3F08F820200B7C2E89E
:200402009000267433F07400A3F0E4A3F090002904F0E4A3F0758200120367900033E0FFD6
:2004220020E1012290003374FD5FF09000067433F07400A3F0E4A3F090000904F0E4A3F064
:200442007582000200B7E582900034F09000267435F07400A3F0E4A3F090002904F0E4A3CE
:20046200F0758200120367900035E0FF30E1012290003574024FF09000067435F07400A37F
:20048200F0E4A3F090000904F0E4A3F07582001200B7900001120840900035E0FF20E0039D
:2004A200C2E822900034E06008D2E8900004020840C2E822E582900037F0E0FF24F8500392
:2004C20002053D900036E0FE30E050EE30E11574075FF5F005F07401800225E0D5F0FBFD51
:2004E2004280801474075FF5F005F07401800225E0D5F0FBF4FD5280900037E0FD5305076E
:2005020074075DFC74E05E4CF59E8DF005F07401800225E0D5F0FBF452932274075FFD7400
:20052200075D4410FC74E05E4CF59E8DF005F07401800225E0D5F0FB429322EF24F05003F9
:200542000205BD900036E0FE30E050EE30E11574075FF5F005F07401800225E0D5F0FBFD50
:200562004290801474075FF5F005F07401800225E0D5F0FBF4FD5290900037E0FD530507CD
:2005820074075DFC74E05E4CF59F8DF005F07401800225E0D5F0FBF452942274075FFD747E
:2005A200075D4410FC74E05E4CF59F8DF005F07401800225E0D5F0FB429422EF24E850037F
:2005C20002063D900036E0FE30E050EE30E11574075FF5F005F07401800225E0D5F0FBFD4F
:2005E20042A0801474075FF5F005F07401800225E0D5F0FBF4FD52A0900037E0FD5305072D
:2006020074075DFC74E05E4CF5978DF005F07401800225E0D5F0FBF452952274075FFD7404
:20062200075D4410FC74E05E4CF5978DF005F07401800225E0D5F0FB429522EF24E150010E
:2006420022900036E0FE30E050EE30E11574075FF5F005F07401800225E0D5F0FBFD42B0FF
:20066200801474075FF5F005F07401800225E0D5F0FBF4FD52B0900037E0FD530507740703
:200682005DFC74E05E4CF58F8DF005F07401800225E0D5F0FBF452962253070774075F44D2
:2006A20010FD74E05E4DF58F8FF005F07401800225E0D5F0FB429622E582900038F09000CF
:2006C20039E4F0900038E0FF24F8401974075FF5F005F07401800225E0D5F0FBFE900039B8
:2006E2005580F08058EF24F0401974075FF5F005F07401800225E0D5F0FBFE9000395590E3
:20070200F0803AEF24E8401974075FF5F005F07401800225E0D5F0FBFE90003955A0F0803D
:200722001CEF24E1401774075FF5F005F07401800225E0D5F0FBFF90003955B0F09000395A
:20074200E060047582012275820022E58290003AF0E0FF24F8401474075FF5F005F0740187
:20076200800225E0D5F0FBF4528022EF24F0401474075FF5F005F07401800225E0D5F0FB81
:20078200F4529022EF24E8401474075FF5F005F07401800225E0D5F0FBF452A022EF24E1A4
:2007A200401474075FF5F005F07401800225E0D5F0FBF4FF52B022E58290003BF0E0FF2437
:2007C200F8401374075FF5F005F07401800225E0D5F0FB428022EF24F0401374075FF5F063
:2007E20005F07401800225E0D5F0FB429022EF24E8401374075FF5F005F07401800225E054
:20080200D5F0FB42A022EF24E1401374075FF5F005F07401800225E0D5F0FBFF42B022E563
:200822008290003DF090003CE0FF600990003DE0F5820207B990003DE0F58202074DAF83D1
:20084200E58290003EF0EFA3F090003EE0FEA3E0FF90003EE0F5F0A3E045F07001221EBE07
:20086200FF011F90003EEEF0EFA3F090003EE0FEA3E0FF7C007D00C3EC9EED9F50090000D0
:200882000CBC00F30D80F022AF83E582900040F0EFA3F0900040E0FEA3E0FF7C007D00C335
:2008A200EC9EED9F501D9003E8C007C006C005C0041208C6D004D005D006D0070CBC00DF45
:2008C2000D80DC22AF83E582900042F0EFA3F0900042E0FEA3E0FF7C007D00C3EC9EED9FAA
:2008E200501D9003E8C007C006C005C004120840D004D005D006D0070CBC00DF0D80DC2216
:20090200E582900044F0740355B2FFE0FE74FC5E4FF5B222E582900046F0E0FF700A900053
:2009220045E0F5A143B20122900045E0F5A243B20222E582900047F074F855ADFFE0FE7490
:20094200075E4FF5AD22740755A3FF900048E4F07424A3F074F4A3F0E4A3F07E00C3EE9F94
:200962005029900048E0FAA3E0FBA3E0FCA3E0C313FDEC13FCEB13FBEA13FA900048F0EB59
:20098200A3F0ECA3F0EDA3F00E80D2900048E0FCA3E0FDA3E0FEA3E08C828D838EF022E588
:2009A2008290004EF0E0F5A590004CE0FEA3E0FF8ECF8FCE22E58290004FF0740F55DCFF6A
:2009C200E0FE74F05E4FF5DC22AF83E582900050F0EFA3F0900050E0FEA3E0FF8EAF8FAF8D
:2009E20022AF82AE83ADF0FC900052EFF0EEA3F0EDA3F0ECA3F0900056E4F0A3F07407557A
:200A0200ADFFBF070B758202120934E5AD30E6FB900052E0FCA3E0FDA3E0FEA3E0FFC3EC7C
:200A220094F8ED94CFEE9407EF94005051EF5401A2E0CE13CE13CEFFEDC3134EFEED540185
:200A4200A2E0CC13CC13CCFD74F42CFC74013DFDE43EFEE43FFF90009C74E8F07403A3F088
:200A6200E4A3F0A3F08C828D838EF0EF12144DAC82AD83AEF0FF900056ECF0EDA3F090009F
:200A820056E0FEA3E0FF8E828F83C007C0061209CBD006D0078E828F8322E582900059F0D8
:200AA200900058E0FF30E73D900059E0FEBE080A74C755A64408F5A6801EBE100A74C7555F
:200AC200A64410F5A68011BE200A74C755A64420F5A680047582002274FE5588FE74015F13
:200AE2004EF588801B900059E0FFBF08028008BF10028003BF200553A6C7800475820022E0
:200B020075820122AF83E58290005AF0EFA3F090005AE0FEA3E0FD74035DF5D38ED274E02C
:200B22005DF5D122E58290005CF0E0FF740F5FF074C355D3FFE025E025E04FF5D322E58292
:200B420090005DF0E0F582120B2643D3800000000022E58290005EF0E0F582120B407440B7
:200B620055D3FFBF400280F685D58285D48322E582900061F0E0FF530703BF020E90005FB9
:200B8200E0FEA3E0FF8E8C8E8A800A90005FE0F58AA3E0F58C74F05589FF900061E0FE7461
:200BA2000F5E4FF58922E582900064F0E0FF530730BF200E900062E0FEA3E0FF8E8D8E8BB0
:200BC200800A900062E0F58BA3E0F58D740F5589FF900064E0FE74F05E4FF58922E5829058
:200BE2000067F0E0FF74065FFEBE06028006530706BF040C900065E0FEA3E0FF8EB48FB590
:200C020074F055B3FF900067E0FE740F5E4FF5B3221200F590006874FFF09000067468F0D4
:200C22007400A3F0E4A3F090000904F0E4A3F07582040200B7E582900069F09000067469B9
:200C4200F07400A3F0E4A3F090000904F0E4A3F07582050200B7E58290006AF090002674F0
:200C62006BF07400A3F0E4A3F090002904F0E4A3F075820612036790006BE0FF74D75FF088
:200C820090006AE0FFBF010B90006BE0FE74204EF0800CBF030990006BE0FF74084FF09087
:200CA2000006746BF07400A3F0E4A3F090000904F0E4A3F07582060200B7E58290006CF0D2
:200CC200E0FFBF010890006D743FF0800590006DE4F0900006746DF07400A3F0E4A3F09000
:200CE200000904F0E4A3F07582010200B7E58290006EF0900026746FF07400A3F0E4A3F071
:200D020090002904F0E4A3F075820012036790006FE0FF74F35FF090006EE0FFBF010B906E
:200D2200006FE0FE74084EF0800CBF020990006FE0FF740C4FF090006FE0FF74024FF09094
:200D42000006746FF07400A3F0E4A3F090000904F0E4A3F07582000200B7E582900070F02F
:200D62009000267471F07400A3F0E4A3F090002904F0E4A3F0758206120367900071E0FFEB
:200D820074F95FF0900070E0540325E0FF900071E04FF09000067471F07400A3F0E4A3F051
:200DA20090000904F0E4A3F07582060200B790007374F0F0900074F0900075F0900076F041
:200DC2009000777402F09000067477F07400A3F0E4A3F090000904F0E4A3F07582021200A6
:200DE200B790007274D2F09000067472F07400A3F0E4A3F09000097405F0E4A3F075820A9E
:200E02001200B79000067472F07400A3F0E4A3F09000097405F0E4A3F07582101200B79044
:200E2200007274E1F09000067472F07400A3F0E4A3F09000097405F0E4A3F075820B120082
:200E4200B79000777420F09000067477F07400A3F0E4A3F090000904F0E4A3F07582120250
:200E620000B7AFF0AE83E582900078F0EEA3F0EFA3F0900016E4F0A3F0A3F0900019F0A3AB
:200E8200F090001B04F07582FF12022BAF8274405FFE606E900078E0FBA3E0FCA3E0FDEFAB
:200EA200C313FA5302078B828C838DF0EA12159390007B7440F0900006747BF07400A3F09C
:200EC200E4A3F090000904F0E4A3F0758207C007C0061200B7D006D007EF30E52590007B60
:200EE2007420F0900006747BF07400A3F0E4A3F090000904F0E4A3F0758207C0061200B7E8
:200F0200D0068E82229000367401F075820B1204B69001E0120840900036E4F075820B1255
:200F220004B690005012084075820B1206BAE582FFB401009200E433FF900190C007120822
:200F420040D0078F8222E58290007CF0C2AF7F0890007CE0FE30E0299000367401F07582A5
:200F62000BC0071204B6900001120840900036E4F075820B1204B6900031120840D007800C
:200F8200279000367401F075820BC0071204B6900031120840900036E4F075820B1204B6E5
:200FA200900001120840D00790007CE0C313FEF0DF9ED2AF2290007DE4F0C2AF7F0090003C
:200FC200367401F075820BC0071204B6900001120840900036E4F075820B1204B6900002FA
:200FE20012084075820B1206BAAE8290003CC006120840D006D00790007DE0C313FDEE0347
:201002005480FE4DF00FBF080040B3D2AF90007DE0F58222AFF0AE83E58290007EF0EEA329
:20102200F0EFA3F0120F07E5827004758201227582CC120F4875824E120F48758200120F2D
:20104200487582FF120F4875823F120F48120F07E5827004758201227582CC120F48758208
:2010620044120F487E907F0175820BC007C0061206BAE582D006D00770091EBEFF011FEE5C
:201082004F70E5EE4F700475820222120F07E5827004758201227582CC120F487582BE12CE
:2010A2000F487F00EF2482FDE43400FEC007C006C005120FB7AC82D005D006D0078D828E39
:2010C20083ECF00FBF090040DB9000007408F090008275F000120000AF8290008AE0FEEF20
:2010E200B50602800475820322900083E0FE7F00900082E0FD7C004207EC420690008BEF2F
:20110200F0EEA3F0900081E4F0EE30E717EFF4FFEEF4FE90008B74012FF0E43EA3F09000A5
:20112200817401F090008BE0FEA3E0A2E713CE13CEA2E713CE13CEFF8E828F831215AEAC13
:2011420082AD83AEF0FFE4C0E0C0E07480C0E003C0E08C828D838EF0EF12163EAC82AD8394
:20116200AEF0FFE58124FCF58190008DECF0EDA3F0EEA3F0EFA3F0900081E0601090008DDA
:20118200ECF0EDA3F0EEA3F0EFB2E7A3F090007EE0FDA3E0FEA3E0FFC007C006C005900085
:2011A2008DE0C0E0A3E0C0E0A3E0C0E0A3E0C0E090000075F020744112137CA982AA83AB49
:2011C200F0FCE58124FCF58189828A838BF0EC1215BBAB82AC83D005D006D0078D828E83C6
:2011E2008FF0EB121593A3EC1215937582002275AD0190006574FFF0A3F0758206120BDF60
:2012020043B30190004CE4F0A3F07582201209A17582E01209B7D2AF740755A4FFBF03025E
:2012220080030212AF75A40075B100900110E0FEA3E0FFC3EE9496EF64809480500F900174
:2012420010E02401F0A3E03400F075A403900100E0FCA3E0FDA3E0FEA3E0FFC3EC94FEEDA6
:2012620094FFEE94FFEF648094FF5018900100E02401F0A3E03400F0A3E03400F0A3E034FF
:2012820000F0800B900100E4F0A3F0A3F0A3F0900100E0FCA3E0FDA3E0FEA3E0FF900093A0
:2012A200ECF0EDA3F0EEA3F0EFA3F08015900100E4F0A3F0A3F0A3F0900093F0A3F0A3F0E1
:2012C200A3F0120C13120DB075824B120C37758201120C58758200120CBC758202120CEF9D
:2012E200758203120D5C9000917403F090009A75F000121016E582FF701290009AE0FDA396
:20130200E0FE900098EDF0EEA3F08007900098E4F0A3F0900097EFF0E5DC30E4089000924C
:201322007401F08005900092E4F075820112044890000C7420F0E4A3F090000E04F09000BC
:201342009175F0001200FC30C1FD900016E4F0A3F0A3F0900019F0A3F090001B04F0758237
:1A136200FF12022BE58230E5DE1201BF120400900110E4F0A3F075A40322AB
:20137C0012141FBC0003021610EF60FA30D502B2D1E583B4FF03021626E582B4FF030216C1
:20139C0026258340072482400B0216102483145003021626F582EA8DF0A4A8F0EA8EF0A491
:2013BC0028F8E435F0F9EB8DF0A428E935F0F9E433CA8FF0A429F9EA35F0FAEBF88EF0A480
:2013DC0029F9EA35F0FAE433FBEC8DF0A429F9EA35F0FAE43BFBE88FF0A42AFAEB35F0FB28
:2013FC00E433CCFD8EF0A42AFAEB35F0FBE43CFCED8FF0A42BFBEC35F0FC20E703121560B0
:03141C000215EFC7
:20141F00AA82AB83A2F73392D1F5826002D2F7ACF0E58124F9F8E6FD08E6FE0886F008E630
:0E143F00A2F73392D5F5836002D2F7AFF02208
:20144D00AF82AE83ADF0FC9000A0EFF0EEA3F0EDA3F0ECA3F09000A4E4F0A3F0A3F0A3F034
:20146D0090009CE0FCA3E0FDA3E0FEA3E0FF750C209000A0E0F8A3E0F9A3E0FAA3E0FB9024
:20148D0000A8235401F0E828F8E933F9EA33FAEB33FB9000A0E8F0E9A3F0EAA3F0EBA3F063
:2014AD009000A4E0F8A3E0F9A3E0FAA3E0FBE828F8E933F9EA33FAEB33FB9000A4E8F0E95A
:2014CD00A3F0EAA3F0EBA3F09000A8E0601E9000A4E0F8A3E0F9A3E0FAA3E0FB9000A474B0
:2014ED000148F0E9A3F0EAA3F0EBA3F09000A4E0F8A3E0F9A3E0FAA3E0FBC3E89CE99DEAF5
:20150D009EEB9F40319000A4E8C39CF0E99DA3F0EA9EA3F0EB9FA3F09000A0E0F8A3E0F9E5
:20152D00A3E0FAA3E0FB9000A0740148F0E9A3F0EAA3F0EBA3F0150CE50C600302147E90B6
:13154D0000A0E0FCA3E0FDA3E0FEA3E08C828D838EF022CD
:06003500E478FFF6D8FD9F
:201560007804EC7011E58224F8500AF582E4C9CACBFCD8EF22EC7820058220E713D582018A
:1315800022C3E933F9EA33FAEB33FBEC33FCD8EA15822298
:200013007900E94400601B7A009017FE78AA75C900E493F2A308B8000205C9D9F4DAF27583
:02003300C9FF03
:1B15930020F71130F6138883A88220F509F6A8837583002280FEF280F5F02257
:20003B007800E84400600A790175C900E4F309D8FC78A9E84400600C7901900001E4F0A3F0
:04005B00D8FCD9FAFA
:0D15AE00AC83AB827A007900748E021726A0
:2015BB0012174A700AE582458345F0700122E430D112F4700BE5F0F47006E58330E70122E5
:1415DB0090800022700AE5F07006E58320E70122907FFF2243
:2015EF00B98003EA13B34010EA2401FAE43BFBE43CFC50047C800582BC000EBB000BBA0040
:20160F0008E4F5F0F583F58222A2D1E582138CF092F78B838A8222E4F583F58275F080F4FF
:0F162F00A2D11322E4F583F58275F0C0747F22F7
:20163E0012141F30D502B2D1BF0009BC0003021633021626BC0003021610E583B4FF0BE5BB
:20165E0082B4FF03021633021610E582B4FF03021626C395835007247F400B02161024807A
:20167E00145003021626F582C3ED9AEE9BEF9C40111582C3EA33F9EB33FAEC33FBE433FCCC
:20169E008005E4CCCBCAF9C08275F019C3E99DEA9EEB9FEC9400D5F002802D400EE99DF98D
:2016BE00EA9EFAEB9FFBEC9400FCC3B3E833F8E58233F582E58333F583C3E933F9EA33FAED
:2016DE00EB33FBEC33FC80C4B3E4F938FAE43582FBE43583FCD082500405827C80121560D4
:0316FE00021607CA
:0D0006007581201217A5E58260030200033A
:1C17010020F71430F6148883A88220F507E6A88375830022E280F7E49322E022F7
:20171D00FCABF0AA83A982749EF582C2D1EC30E716D2D1E9F42401F9EAF43400FAEBF434CB
:0D173D0000FBECF43400FC1215600215EF07
:20174A001217A9C3749E9582403979001217BB30D126E9F42401F582EAF43400F583EBF4E2
:20176A003400F5F0ECF43400700AE582458345F0700122E430E70F22EC20E71489828A8376
:1B178A008BF02230D10AE4F582F583F5F074802274FFF582F583F5F0747F2272
:0417A5007582002227
:1217A900AA82AB83A2F73392D1F5826002D2F7ACF02245
:2017BB006040F82582500274FFF582E824F8501ECCCBCAF9E4CC24F85014CBCAF9E4CB2436
:2017DB00F8500BCAF9E4CA24F8500379002224086010F8C3EC13FCEB13FBEA13FAE913F9E9
:0317FB00D8F12200
:00000001FF
